:020000040800F2
:1000000000500020B10F0008F70F0008F90F00089A
:10001000FB0F0008FD0F0008FF0F000800000000A4
:1000200000000000000000000000000001100008B7
:100030000310000800000000051000080710000869
:100040000B1000080D1000080F1000081110000818
:1000500013100008151000081710000819100008E8
:100060001B1000081D1000081F10000821100008B8
:100070002310000825100008271000082910000888
:100080002B1000082D1000082F1000083110000858
:100090003310000835100008371000083910000828
:1000A0003B1000083D1000083F10000841100008F8
:1000B00043100008451000084710000849100008C8
:1000C0004B1000084D1000084F1000085110000898
:1000D0005310000855100008571000085910000868
:1000E0005B1000085D1000085F10000810B5054C9B
:1000F000237833B9044B13B10448AFF300800123D4
:10010000237010BD88040020000000007426000841
:10011000084B10B51BB108490848AFF300800848E8
:10012000036803B910BD074B002BFBD0BDE810409E
:10013000184700BF000000008C040020742600084F
:100140008404002000000000154B002B08BF134B57
:100150009D46A3F5803A00218B460F461348144A6A
:10016000121A00F0BBFF0F4B002B00D098470E4B2C
:10017000002B00D098470020002104000D000D48FE
:10018000002802D00C48AFF3008000F081FF20006F
:10019000290000F059FA00F067FF00BF00000800D6
:1001A0000050002000000000000000008804002033
:1001B000580500200000000000000000F8B51746B8
:1001C00082B105460E46002402E00134A74207D062
:1001D0002B6816F8011B1B68284698470028F4D1A5
:1001E0002046F8BD1446FBE7704700BF002070476B
:1001F000CB782DE9F04103F00F06DB0648BF8B7882
:100200000C8848BF1E4314F0FF0F26D0056800235A
:1002100001274FF00F0803E00133082B1BD00C8897
:1002200007FA03F232EA0404F6D19C0091F803E0E5
:1002300008FA04FC25EA0C0506FA04F4BEF1280FBE
:1002400045EA040538D0BEF1480F03F1010308BFA9
:100250000261082BE3D105600C88FF2C2AD9456880
:10026000002301274FF00F0C03E00133082B20D0AF
:100270000C8803F1080207FA02F232EA0404F4D10E
:1002800091F803E09C00BEF1280F04BF426191F891
:1002900003E00CFA04F8BEF1480F03F1010325EA6C
:1002A000080506FA04F408BF0261082B45EA0405B4
:1002B000DED14560BDE8F0814261ADE7F0B5484B65
:1002C0004849DA6983B042F48002DA6189885A6861
:1002D00021F03F0102F00C020904082A4FEA114103
:1002E0000ED15A685C68C2F38342E40302F1020251
:1002F00071D55B689B036ED43B4B03FB02F200E0BD
:10030000394A374C394E6568394BC5F30315775D6B
:100310006568FA40C5F30225775D6568FA40A3FB7E
:100320000273C5F3C225755D6568324F9B0CA4F559
:10033000DC341943C5F381352F4E7D5DA180A6FBCA
:1003400002122188D20C21F001010904090C21803C
:1003500091B2002A3CD041F400414FF4967202FB66
:1003600003F3264CDA1784FB0343C2EBA3130133D8
:100370001C4A9BB213849183138840F480409BB243
:1003800043F0010313801388154923F4816323F09C
:1003900002031B041B0C43F4806313801081138839
:1003A0004FF440649BB243F0010313808B691C221D
:1003B00043F008038B611248022301A9ADF8044001
:1003C0008DF807208DF80630FFF712FF03B0F0BD5F
:1003D00048F20101C1E70B4B03FB02F291E700BFBA
:1003E000001002400058004000127A000400002073
:1003F00083DE1B4300000020851DD96FD34D6210A2
:10040000000C014000093D000A2900F097800D29E9
:1004100000F09B802DE9F04F437B8DB0C27A1C46E3
:1004200008935BB29342074690F811B06CDA827B76
:10043000007B1546099252B2824265DA0BEB8B00C3
:100440000344002B60DD02EBCB02002A5CDD2B466F
:100450005B445F4A013BDBB201EB8101387C0A441B
:100460000B9397F80FA00023039404900A9205932E
:10047000CDF808B0059B0B9E052B18BF0A9A099D65
:1004800018BF12F803B0059A089B08BF4FF0000B85
:100490001344DBB20793029A039B4FF0000903EB6E
:1004A00002081BF0010F52D0029B012B6CD0039C61
:1004B000444511DA2B4655469A46234621460134D7
:1004C0000195009652463846E4B200F0B3FC44452C
:1004D000F3DB5346AA461D46029A09F10109154469
:1004E0001644B9F1080FEDB2F6B24FEA5B0BD8D162
:1004F000059B5FFA88F20133062B05930392B9D16D
:100500007B7B97F811B00893089A0BEB4B0302EB37
:100510004303FA7CDBB27B7362B1FA7AABEB8B01FB
:1005200002EB4102934205DDBB7B002203EBCB03D0
:10053000BB737A7301200DB0BDE8F08F837B417CE3
:10054000002203EBC1038373427301207047049BB5
:100550009A45C1D0029B012B28D0039C4445BBDAAD
:10056000CDF818A0AA46049D2346214601340195E2
:10057000009652463846E4B200F05CFC4445F3DB9A
:100580005546DDF818A0A7E7FA7A07995FFA89F3CC
:100590008A42A1D9099A397B1344DAB291429BD994
:1005A00053460799384600F0A3FB95E7FA7A079976
:1005B0005FFA89F38A428FD9099A397B1344DAB2F8
:1005C000914289D9049B0799384600F091FB83E753
:1005D000CC200008184B4FF0000C1A462DE9F041D2
:1005E0004142012489B20138DFF85480DFF854E039
:1005F000124F9984000C1C804FF08046D8E90045CA
:10060000A2F810C0138ACEF8806120BF138A0A496D
:100610009BB2002BF9D0BB68013823445B4223F026
:100620007F43E41845F10005431CE9D1C8E90045C2
:1006300000230B80BDE8F0810008004010E000E0DE
:100640004805002000E100E04FF6FF722DE9F04F71
:10065000834B0027834E6FF07F40052158609F60D9
:100660001960F069804987B04FF0010847237F4D3A
:1006700040F00400F0610F800B8501938A850092A1
:10068000A1F8148028697A4C40F010002861A1F884
:100690000C802168DFF8F09121F0070141EA0801A0
:1006A0002160B169802541F00401B161032448460D
:1006B00003A94FF0140AADF80C508DF80E408DF8D8
:1006C0000FA0FFF795FDC9F81050B0694FF0100B5F
:1006D00040F01000B06103A96648ADF80C508DF8E9
:1006E0000E408DF80FB0FFF783FDF1694FF08044A5
:1006F00041EA0801F1612188BDF8120021F45C7122
:1007000001FA0BF1009A019B21FA0BF101432180C0
:10071000A2852385A4F814802388574E9BB243EA10
:10072000080341F288302380FFF754FF3C22402326
:100730003272B3723373AE207572F572B774777319
:10074000B77386F8118086F8108086F80F8086F8D7
:100750001380009300F00EFBA82000F00BFB3F205D
:1007600000F008FBD32000F005FB384600F002FB48
:10077000B02000F0FFFA384600F0FCFA584600F0CE
:10078000F9FA202000F0F6FA384600F0F3FA009B60
:10079000184600F0EFFA812000F0ECFACF2000F0CC
:1007A000E9FAA12000F0E6FAC82000F0E3FAA6205A
:1007B00000F0E0FAD52000F0DDFA284600F0DAFA81
:1007C000D92000F0D7FAF12000F0D4FADA2000F0B6
:1007D000D1FA122000F0CEFADB2000F0CBFA302064
:1007E00000F0C8FA2E2000F0C5FA8D2000F0C2FA01
:1007F000504600F0BFFAAF2000F0BCFA39464FF483
:1008000080621E484D4600F069FC80276F6144F607
:100810002060FFF7DFFE00232F61A384A38C9BB22F
:10082000092B02D8AB681806F8D5A38CDBB2092BCC
:100830002CD90122002302217174F2733274737374
:10084000B3730F4800F076FB00F0C0FA0D48FFF7D5
:10085000C1FE4FF480620021084800F03FFCD4E75D
:1008600010E000E0001002400008004000ED00E051
:100870000020024000100140A404002014000020C9
:10088000E425000820A10700000801400023A384FC
:10089000A38C9BB22C2B02D8AB681906F8D4A38C7E
:1008A000063B03F0FF03262BC3D80023A384A38CAD
:1008B0009BB2592B02D8AB681A06F8D5A38C473BDC
:1008C00003F0FF03122BB4D80023A384A38C9BB2A4
:1008D0005E2B02D8AB681B06F8D4A38C4C3B03F00C
:1008E000FF03122BA5D803AA00204FF000014FF000
:1008F0000808A184A38C9BB2402B02D8AB681F06CA
:10090000F8D5A38C2E3B03F0FF03122B91D8A084C3
:10091000A38C9BB24F2B02D8AB681B06F8D4B4F85B
:1009200024E05FFA8EFEAEF10B03442B81D81378DE
:10093000BEF12D0F4FEA4303DBB288BF43F0010342
:10094000B8F101081370D4D101320DF111039A42AC
:10095000CBD19DF80CB09DF80D309DF80EA05B44F6
:100960009DF80F2053449DF8101013448B427FF4E0
:1009700060AF41464FF48062194800F0AFFB4FF082
:1009800001094FF0140E022786F80EE005221549E2
:1009900086F80D80777486F80F9086F810901248CC
:1009A000FFF70CFC0A21584600F0DAFA0F4800F075
:1009B000C1FA05220E490C48FFF700FC50460A21F7
:1009C00000F0CEFA4A460B4986F811900648FFF728
:1009D000F5FB7774084800F0ADFA00F0F7F935E759
:1009E00014000020C8250008A4040020D025000819
:1009F000D4250008DC250008E025000830B43C4B75
:100A00003C49186882B040F0010018605D68002021
:100A10002940596019684FF41F0421F0847121F4B2
:100A20008031196019681A4621F4802119605968CB
:100A300021F4FE0159609C6000900190196841F416
:100A40008031196003E0009BB3F5A06F09D01368F3
:100A500003F400330193009B01330093019B002BAF
:100A6000F1D0234B1B6813F4003318BF012301930B
:100A7000019B012B06D0204B4FF000629A6002B020
:100A800030BC70471D4A1A4B1068194640F01000E0
:100A90001060106820F003001060106840F0020041
:100AA00010605A685A605A685A605A6842F4806204
:100AB0005A605A6822F47C125A605A6842F4E8126A
:100AC0005A601A6842F080721A600B68084A9B01EB
:100AD000FBD51146536823F003035360536843F07A
:100AE000020353604B6803F00C03082BFAD1C2E7F2
:100AF000001002400000FFF800ED00E0002002407E
:100B0000F0B54DF6F006294F012597F98C30284CA9
:100B1000590903F01F03274A05FA03F36031D7F898
:100B2000887044F821300023234996841580234E91
:100B300013824FF080459646128AC4F880510B60AC
:100B4000D6E90045BB8A3A8B9BB243EA024330EABE
:100B5000030321D020BFBEF81030164A9BB2002BF1
:100B6000F0D00027124817824FF0804E144BB2F895
:100B700010C0C0F880E19B684FF0FF3023445B4217
:100B800023F07F43E4183B4645F10005C6E90045E4
:100B9000178008601846F0BD064B002018804FF003
:100BA000FF3201230A601846F0BD00BFB8040020E0
:100BB00000E100E00008004050050020480500204A
:100BC00010E000E00C4B93F88D20022A08D19A68BF
:100BD0001F2A08DC511C1A441073996001207047C9
:100BE0009A6D1F2A01DD00207047511C1A4482F8BB
:100BF0005C00996501207047B80400202DE9F041A0
:100C0000284E42F2107596F8008003E0FFF7E2FCF0
:100C1000013D33D0D6F8883001201C88214F04F4E0
:100C20000074A4B2002CF1D11A881F4892B242F489
:100C300080721A80FFF764FF00B34FEA4803D7F8C9
:100C4000882003F0FE0313821848FFF759FFA8B16C
:100C5000BB68002B16DDB84607F10B0503E0D8F89A
:100C60000830A3420EDDD6F8883015F8012F104861
:100C70001A82FFF745FF01340028F0D14FF0FF3012
:100C8000BDE8F081D6F8881000220B8801249BB2C1
:100C900043F400730B801046B26086F88D40BDE8C7
:100CA000F08100BFB80400200100030082000700AB
:100CB0008400070070B4094B09490A4E0A4D0B4CD9
:100CC000002221200E604A6083F88D20C3F88450F2
:100CD000C3F8884083F88C0070BC7047B8040020CB
:100CE000A4040020F8250008BD02000800580040B8
:100CF00010B4847C04F00304022C84742FD0032CE1
:100D000027D0012C10D0012B17D0D308184C01EBA1
:100D1000C311635C02F00702012000FA02F223EA29
:100D20000202625410BC7047407A012B00F1FF3080
:100D3000A0EB02000A46C1B2E7D1D0080C4C01EB8F
:100D4000C011605C02F0070293400343635410BC7F
:100D50007047807A0138401A1146C2B2D3E7447A0C
:100D6000807A013C0138611A821AC9B2D2B2CAE74C
:100D70001400002038B50546114C0020D4F884300A
:100D800098471049D4F888200B690F4843F01003A6
:100D90000B61938802219BB243F400739380027A23
:100DA0000023802084F88D102270A360FFF70AFFD3
:100DB0002846FFF707FFBDE83840FFF71FBF00BF19
:100DC000B804002000ED00E0A40400202DE9F04765
:100DD0000020FFF7CFFF1020FFF7CCFF00244020BA
:100DE000FFF7C8FFA246DFF848900F4F0F4E4FF0B5
:100DF000020899F80830402087F88D80C7F808A0CD
:100E00003B70FFF7DFFE04F11005ADB2305D013439
:100E1000A4B2FFF7D7FEAC42F8D1FFF7EFFEB4F56E
:100E2000806FE6D1BDE8F087B804002014000020F0
:100E3000A40400202DE9F04F164685B09DF8382017
:100E4000C1EB030BC6EB020ABAF1000FB8BFCAF13F
:100E5000000ABBF1000F0D469946B8BFCBF1000B5D
:100E600098460B469DF83C10DA45074601915CDC3C
:100E7000904633464D4551D8194643468846C8EBFF
:100E80000303002BB8BF5B42B24294BF4FF0FF3266
:100E90000122C5EB090189B20CB204EBD474A94557
:100EA000029103924FEA640435D31FFA83F814E0E9
:100EB000B34208D93B7BAB4205D9019B2A46314658
:100EC0003846FFF715FFC8EB0404A3B21CB2002C90
:100ED00017DB0135EDB2A9451DD3DA45FB7AE7DC16
:100EE000AB42F0D93B7BB342EDD9019BC8EB040484
:100EF000324629463846FFF7FBFEA3B21CB2002C4F
:100F0000E7DA039A01351644029AEDB2D418A945DE
:100F1000F6B224B2E1D205B0BDE8F08F30462946E2
:100F200016464D4602468946A9E791463546424651
:100F30001E469FE710B5044638B100F0E2F821469E
:100F400002460548FFF73AF90446012203490248E0
:100F5000FFF734F9204410BDA4040020082600083F
:100F6000012998BF0A21B0B500238AB08DF824303A
:100F70000DF12304B0FBF1F201FB1205EBB2092DD8
:100F800003F130058ABF3733EBB2DBB22746104698
:100F900004F80139002AEDD1384600F0B2F839469C
:100FA00002460248FFF70AF90AB0B0BDA4040020C7
:100FB0000649074A074B9A42BEBF51F8040B42F854
:100FC000040BF8E7044880470448004798270008C6
:100FD0000000002084040020FD09000849010008E9
:100FE0001F49204A002301E041F8043B9142FBD312
:100FF000FFF72AFBFEE7FEE7FEE7FEE7FEE7FEE778
:10100000FEE7FEE7FEE7FEE7FEE7FEE7FEE7FEE7B8
:10101000FEE7FEE7FEE7FEE7FEE7FEE7FEE7FEE7A8
:10102000FEE7FEE7FEE7FEE7FEE7FEE7FEE7FEE798
:10103000FEE7FEE7FEE7FEE7FEE7FEE7FEE7FEE788
:10104000FEE7FEE7FEE7FEE7FEE7FEE7FEE7FEE778
:10105000FEE7FEE7FEE7FEE7FEE7FEE7FEE7FEE768
:10106000880400205805002008B5074B044613B13A
:101070000021AFF30080054B1868836A03B19847DD
:10108000204600F046F800BF00000000702600086F
:101090000E4B70B51E460E4C0025E41AA410A54256
:1010A00004D056F8253098470135F8E701F002F8EA
:1010B000084B094C1E46E41AA4100025A54204D092
:1010C00056F8253098470135F8E770BD78040020C0
:1010D00078040020780400208004002003460244A5
:1010E000934202D003F8011BFAE7704710B5431E84
:1010F0000A44914204D011F8014B03F8014FF8E77C
:1011000010BD034613F8012B002AFBD1181A013831
:101110007047FEE703685A004CBF43F0004323F0DA
:1011200000431844704700BF61B32DE9F84F01F147
:10113000FF3A90460646D146002707EB090404EB28
:10114000D4746410E50071190846FFF7E3FFA24567
:10115000834605F10800304409D0FFF7DBFFC345A3
:1011600000F1FF3005D8404509D2671CE5E7C345CB
:1011700005D9A74202D004F1FF39DEE70021084675
:10118000BDE8F88F08467047012807D0022807D02D
:10119000044B00280CBF18460020704702487047D7
:1011A000024870479D180008A1180008A5180008FB
:1011B00030B5254B83B004468D1E7BB301A928466C
:1011C000AFF3008020B301992A46FFF7ADFF014637
:1011D000F0B1FFF79FFF4B68A064012B12D0002BEA
:1011E00001F1040021DBFFF795FF0023E064236594
:1011F0000368002B1DDBFFF78DFF002320611846DD
:1012000003B030BD002323610523184603B030BD71
:10121000002323610923184603B030BD0B490C4B52
:101220000846591AC9100191CEE70123E0642365ED
:10123000DEE7C3F30360FFF7A7FF0028206114BFB8
:1012400000230923DBE700BF000000009026000810
:1012500098270008036810B5DA07044606D49B07F0
:1012600000F1480009D500F05BFC2368590709D557
:101270001A070ED5DB0613D510BD00F049FC236814
:101280005907F5D404F1D00000F052FC23681A0786
:10129000F0D404F5A87000F053FC2368DB06EBD40F
:1012A00004F5E870BDE8104000F08EBC03680BB197
:1012B000184470471846704709207047704700BFB0
:1012C00070B504460D4608E02A6C23696261214628
:1012D0002A4601209847082808D1296C2046FFF7A4
:1012E00067FF06460028EFD000F086FE0728FBD1F6
:1012F0003046296CFFF7E2FF281D00F0FDFB00BF20
:101300002DE9F0470646ADF5727D03AD0C1D17467D
:101310000FCC0FC50FCC0FC50FCC0FC594E80F0035
:1013200002ACD6F80C80D6F8189085E80F000023A0
:101330003046216C2360FFF73BFF0546002F14BFAA
:101340000A2709277DB1A36B47F010018DE8100231
:101350003246636401203346C04778BB28460DF50A
:10136000727DBDE8F087236C4FF4F0727361214603
:101370007AA8FFF7BBFE33697AAA31463846984708
:10138000889B82468DE810023946636432463346B4
:101390000120C04790B94FF4F0727AA92046FFF7B8
:1013A000A5FEBAF1080F06D1216C3046FFF700FF09
:1013B00009270546C6E7BAF1070F04D009200DF545
:1013C000727DBDE8F0872846216CFFF777FF03A800
:1013D00000F092FB406C7047F0B5CB6BF9B00B643A
:1013E0000E1D01AD0F4604460FCE0FC50FCE0FC523
:1013F0000FCE0FC596E80F004FF0FF3685E80F00BF
:10140000009606E023696A46214698470828054663
:1014100008D110992046FFF7CBFE0028F2D0092012
:1014200079B0F0BD6846FFF715FF062DF7D13946B4
:101430002046FFF745FF00BF30B4DD6BC16082611D
:1014400019461D64002230BC5AE700BF70B54369DD
:10145000C6680B6426B10122FFF752FF00F0CCFDF5
:1014600003690A4604460D460146022098470728AC
:1014700007D0082803D129462046FFF721FF00F0B6
:10148000BBFD3046296CFFF719FF281D00F034FB27
:10149000C2682AB110B4CC6B00220C6410BC2FE7D8
:1014A0009AE700BF704700BF836813B1014601206F
:1014B0001847704700B5042907D8DFE801F0030991
:1014C000060909000BB90F2A05D902205DF804FBB3
:1014D00001205DF804FB00EB820252681846019B74
:1014E0001A605DF804FB00BF10B584B0002303ACA4
:1014F0000A4600941946FFF7DDFF039804B010BDBB
:1015000000B5042907D8DFE801F00309060909003E
:101510000BB90F2A05D902205DF804FB01205DF804
:1015200004FB019900EB82020968184651605DF8DE
:1015300004FB00BF10B584B004AC44F8042D0023B4
:101540000A4600941946FFF7DBFF04B010BD00BF48
:10155000F0B5D36BADF50F7D1364151D17AC0746C1
:101560000E460FCD0FC40FCD0FC40FCD0FC495E89D
:101570000F004FF0FF3584E80F00169511E016A814
:101580006A46FFF7D7FF314616A8B84780B9049BD3
:1015900016AA6946082098470528044609D0092854
:1015A00006D026996846FFF703FE0C210028E6D0F6
:1015B000092416A8FFF74EFE20460DF50F7DF0BD5D
:1015C0002DE9F04FCC6C914622688BB004340D4667
:1015D0000792089400F0030B1E46002B64D1120200
:1015E000032307928DF825608DF824302B6DBBF115
:1015F000020F08BFAC6B13F0010343D100F00800E9
:10160000C2B2039201932768002F3DD0022E47D02B
:101610002788B4F802800434AB6C28F0010A0F214B
:1016200048469A44FFF760FF824537D827F0010308
:101630009A4450452CBF002001204FEA480808F08A
:10164000020807F0010748EA0708B8F1010F41D086
:1016500038D3B8F1020F1DD1236823F00042029263
:10166000BBF1000F79D130B10399002900F08180DE
:10167000002A00F0A880002B79DB029B013304EBE9
:101680008304C0E700230193022E40DDFFF714FE20
:10169000002842D009200BB0BDE8F08F0020CCE735
:1016A000D4F804800834B7E7022B9FDC130CD9B2BE
:1016B00012048DF82530022304EB810407928DF883
:1016C000243093E7BBF1000F02D0002840F0B08037
:1016D000043498E7BBF1000F26D1B0B194E80C00B8
:1016E000991C4FEAD272D5D005F158010133069109
:1016F00000F09480201DFFF7D9FD06AB0146284677
:10170000AFF30080002840F0B88008347BE707A9D9
:10171000484600F0F3FA0028BCD1019B002B5CD1B5
:1017200008200BB0BDE8F08F0D2148462F6AFFF767
:10173000DBFE8742E9D1AB6A9C42E6D12046FFF747
:10174000E9FC0F2102464846FFF7F4FE48462A46C8
:101750000021FFF7EFFE07209DE70D2148462F6A85
:10176000FFF7C2FE874248D02368002B85DA043495
:1017700083E7029B3BB305F15803271DCDF810B05A
:10178000DDF80C80A346DDF808A01C46059602E0B3
:10179000B245B04616D038460694FFF787FD06AB33
:1017A000014600222846AFF3008008F10106043705
:1017B0000028EDD0029B5C464345DDF810B0059E45
:1017C000D2D100E05C4648460D21FFF78DFE069B16
:1017D0002862AC626B6206205DE70F214846FFF786
:1017E00083FE0E2102464846FFF7A4FE48462A4AD9
:1017F0000F21FFF79FFE07204DE7AB6A9C42B3D154
:10180000042202990027A318A962EF622A636B637E
:101810002368BB421FDB012301932EE748460D21BD
:10182000FFF762FE2862069B6B62AC62062032E71D
:101830002046FFF76FFC04340646AC632846AFF33E
:10184000008000283FF426AF484632460F21FFF7BC
:1018500071FE07201FE70846013004EB8000FFF708
:1018600059FC0F2102464846FFF764FE48462A46C7
:101870003946FFF75FFE07200DE707460D21484672
:10188000FFF732FE022F2862CDD12B46069A43F88D
:101890002C2F6B62C9E700BF0000000000238FE619
:1018A00001238DE602238BE6F0B50446C5B004297A
:1018B0000DD8DFE801F057030C310F00012B4FEA80
:1018C000124695B266D17219102A40F29F8002200A
:1018D00045B0F0BD002BFAD1102AF8D82368D806FD
:1018E00000F1C98022AE3046019200F077F9A06B7A
:1018F000019A0023012505FA03F1114203D0016882
:10190000043046F823100133042BF4D1A063304691
:1019100000F05AF90020DBE7032BD8D1150C97B261
:10192000EB19102BD3D823681E0700F1B88022AE24
:1019300030467F0000F026F906EBC5027B1EA56B42
:1019400057B12946043A51F8040B013B42F8040F01
:10195000581CF8D105EB87053046A56300F0F0F878
:101960000020B5E7002BB2D1A56B97B2201D012650
:1019700006FA03F1394203F1010302D02968043564
:101980000160102B00F10400F2D112F400503BD1A1
:10199000A5639DE7052B9AD17719202F97D80F2E95
:1019A00065D92F46002D48D12A460027002AA06B72
:1019B00071DD00EBC202014644A800EBC6008C3882
:1019C00051F8045B914240F8045FF9D1084697B1A1
:1019D0003246102E44A938BF102201EBC202A2F5F4
:1019E000C4727900043A00EB810150F8045B814233
:1019F00042F8045FF9D1012B47D00F2EA16332D9F1
:101A000017B102A800F094F8002061E70F2E3FF60E
:101A10005EAF00272268D1070DD522F00101052B0A
:101A200021600193204652D022F0030240F8482B57
:101A300000F072F8019B002F51D02268510736D474
:101A4000012B3ED00F2E06D822A8019300F06CF88F
:101A5000019B002FA8D002A8019300F06DF8019B14
:101A6000C6F11002A2E722A800F05AF8C8E7102F2A
:101A7000CFD9103FCEE723F01003236004F5E870C0
:101A8000019200F0ABF8019A2CE70431A16322A87F
:101A900000F03EF8B8E7002F9AD10146ABE723F0FB
:101AA0000803236004F5A87000F06CF83FE72046B7
:101AB00022F0040240F8D02B019300F03DF8019B86
:101AC000BEE722A8019300F027F8019BC8E741F088
:101AD000020140F8481B00F027F8019BABE7012BFF
:101AE00003D00F2E3FF660AFAEE722A8019300F0BF
:101AF00013F8019B58E700BF00F1340191E838006A
:101B00009C46A6464CF8045D90E8FF0FE54600BDF4
:101B100090EC210B704700BF80EC210B704700BF99
:101B200090EC200B704700BF80EC200B704700BF8B
:101B3000D0EC200B704700BFC0EC200B704700BFFB
:101B4000F0EC0201F0EC0211F0EC0221F0EC0231B9
:101B5000F0EC0241F0EC0251F0EC0261F0EC0271A9
:101B6000F0EC0281F0EC0291F0EC02A1F0EC02B199
:101B7000F0EC02C1F0EC02D1F0EC02E1F0EC02F189
:101B8000704700BFE0EC0201E0EC0211E0EC022142
:101B9000E0EC0231E0EC0241E0EC0251E0EC0261E9
:101BA000E0EC0271E0EC0281E0EC0291E0EC02A1D9
:101BB000E0EC02B1E0EC02C1E0EC02D1E0EC02E1C9
:101BC000E0EC02F1704700BFB0FC0181B0FC019174
:101BD000B0FC01A1B0FC01B1704700BFA0FC0181C5
:101BE000A0FC0191A0FC01A1A0FC01B1704700BFC5
:101BF000EC4600B52DE900502DE9FF1F4FF0000322
:101C00002DE90C0001A9FFF7E7FBDDF840E012B079
:101C1000704700BFEC4600B52DE900502DE9FF1FCD
:101C20004FF000032DE90C0001A9FFF70FFCDDF8D0
:101C300040E012B0704700BFEC4600B52DE90050FF
:101C40002DE9FF1F4FF000032DE90C0001A9FFF75C
:101C50001FFCDDF840E012B0704700BFEC4600B555
:101C60002DE900502DE9FF1F4FF000032DE90C0076
:101C700001ABFFF7E1FBDDF840E012B0704700BFB9
:101C8000EC4600B52DE900502DE9FF1F4FF0000391
:101C90002DE90C0001AAFFF75BFCDDF840E012B073
:101CA000704700BF037A1BB9437A43B9B02070472D
:101CB0005A1E036802721A020260180E70474268C8
:101CC000013B10B4437213680321141D01721A0200
:101CD0004460026010BC180E704700BF00B585B0AC
:101CE00003AA0023009219460C22FFF7E3FB039896
:101CF00005B05DF804FB00BFF0E700BF2DE9F0433D
:101D000006460D4685B04FF000082846FFF7CAFF8B
:101D1000B028044600F0B48020F07F0313F0FF03E6
:101D200020D000F0F003802B7AD0902B35D0A02B60
:101D300048D0B02B5CD0C02B00F0898000F0F803B5
:101D4000D02B0BD100F00702013242F40022052310
:101D500001213046FFF7A8FD0028D6D0092005B0A4
:101D6000BDE8F0830DF10C0919468700CDF800900D
:101D70000D223046FFF79EFBFFB2039B043760063F
:101D80004CBFDF1BFF180023CDF8009019460D2231
:101D900030460397FFF7B4FBB7E700F00D030D2BB8
:101DA000DCD003AF002300F00F0219460097304645
:101DB000FFF780FB0023009719460D223046FFF7FE
:101DC0009FFBA2E7C2434FF47F6302F0070243FA8E
:101DD00002F2010702EA03024FF0000348BF42F497
:101DE000804219463046FFF75FFD0028B6D18CE7E8
:101DF000B1284AD0B22853D0B32800F0818000F037
:101E0000FC03B42BAAD000F007020132012342F4F4
:101E1000002219463046FFF747FD00289ED174E79F
:101E20002846FFF73FFF24022043B0F5004F95D02E
:101E300004010023A2B219463046FFF735FD002801
:101E40008CD114F4004F18BF4FF001085DE7C6288D
:101E500062D0C7286CD000F0F803C02B7BD0C82814
:101E600000F09180C9287FF479AF2846FFF71AFF68
:101E7000020300F00F0002F470220130024366E713
:101E8000B8F1000F6ED0002069E72846FFF70AFF7F
:101E9000024600283FF462AF10F0F003B9D05DE7CE
:101EA00000230DF10C090D221946CDF800903046A3
:101EB000FFF700FB2846FFF7F5FE02064FF002048D
:101EC0000CD5039B00F07F00A040034428460393F9
:101ED000FFF7E8FE030604F10704F2D4039B00F0C9
:101EE0007F0000FA04F203F5017400231444CDF8D6
:101EF000009019460D2230460394FFF701FB04E7DA
:101F00002846FFF7CFFE010300F00F0001F4702117
:101F1000421C01230A437CE72846FFF7C3FE010366
:101F200000F00F0001F47021421C03230A4370E704
:101F30002846FFF7B7FE024600283FF40FAF10F027
:101F4000F0037FF40BAF04213046FFF7ADFC00280F
:101F50007FF404AFD9E600F00F020132032342F40C
:101F6000202256E703AC43460E22414600943046F9
:101F7000FFF7A0FA0094304643460F224146FFF790
:101F8000BFFA4046EBE62846FFF78CFE00F0F00271
:101F900000F00F031032013343EA0232D7E600BFEC
:101FA00010B5C36C84B003205A688DF80C00DC793E
:101FB00012020833084601A901928DF80D400293E0
:101FC000FFF79CFE04B010BD08B5FFF795FE806CCE
:101FD00008BD00BF08B5FFF78FFEC36CD87903EBCF
:101FE0008000083008BD00BF08B500F005F800BF4C
:101FF00008B5FFF7F9FF00BF08B5062000F02EF87E
:102000000120FFF786F81F2938B504460D4604D98C
:10201000162303604FF0FF3038BD426C12B152F806
:1020200021304BB9204600F033F82A4601462046BD
:10203000BDE8384000F01AB8012B0CD0591C03D170
:1020400016230360012038BD0024284642F82540AD
:102050009847204638BD002038BD0000024B01469D
:102060001868FFF7D0BF00BF7404002038B5074CD4
:102070000023054608461146236000F013F8431C70
:1020800002D1236803B12B6038BD00BF5405002086
:1020900000F000B8024B58221A604FF0FF30704732
:1020A00054050020024B58221A604FF0FF30704751
:1020B00054050020F8B500BFF8BC08BC9E46704728
:1020C000F8B500BFF8BC08BC9E4670470000000091
:1020D000003E5B4F5B3E3E6B4F6B3E1C3E7C3E1CAE
:1020E000183C7E3C181C577D571C1C5E7F5E1C00F4
:1020F000183C1800FFE7C3E7FF0018241800FFE7AB
:10210000DBE7FF30483A060E2629792926407F056D
:102110000507407F05253F5A3CE73C5A7F3E1C1C83
:1021200008081C1C3E7F14227F22145F5F005F5F43
:1021300006097F017F006689956A6060606060942F
:10214000A2FFA29408047E040810207E2010080834
:102150002A1C08081C2A08081E101010100C1E0C3F
:102160001E0C30383E3830060E3E0E0600000000D1
:102170000000005F00000007000700147F147F14B8
:10218000242A7F2A122313086462364956205000FD
:1021900008070300001C2241000041221C002A1CE9
:1021A0007F1C2A08083E08080080703000080808D4
:1021B0000808000060600020100804023E514945F4
:1021C0003E00427F400072494949462141494D3312
:1021D0001814127F1027454545393C4A4949314179
:1021E000211109073649494936464949291E000047
:1021F000140000004034000000081422411414149C
:102200001414004122140802015909063E415D5987
:102210004E7C1211127C7F494949363E4141412290
:102220007F4141413E7F494949417F090909013EBA
:10223000414151737F0808087F00417F41002040E1
:10224000413F017F081422417F404040407F021CF3
:10225000027F7F0408107F3E4141413E7F0909090A
:10226000063E4151215E7F091929462649494932D6
:1022700003017F01033F4040403F1F2040201F3F9C
:102280004038403F63140814630304780403615921
:10229000494D43007F414141020408102000414163
:1022A000417F04020102044040404040000307080F
:1022B0000020545478407F2844443838444444280B
:1022C000384444287F385454541800087E090218B2
:1022D000A4A49C787F0804047800447D400020403A
:1022E000403D007F1028440000417F40007C04787E
:1022F00004787C080404783844444438FC182424C6
:102300001818242418FC7C08040408485454542445
:1023100004043F44243C4040207C1C2040201C3CC2
:102320004030403C44281028444C9090907C4464B9
:10233000544C44000836410000007700000041364C
:10234000080002010204023C2623263C1EA1A161D2
:10235000123A4040207A3854545559215555794104
:102360002154547841215554784020545579400CDB
:102370001E527212395555555939545454593955BC
:102380005454580000457C410002457D42000145FF
:102390007C40F0292429F0F0282528F07C5455456C
:1023A000002054547C547C0A097F493249494932FF
:1023B0003248484832324A4848303A4141217A3A14
:1023C00042402078009DA0A07D39444444393D40DE
:1023D00040403D3C24FF2424487E4943662B2FFC8B
:1023E0002F2BFF0929F620C0887E09032054547939
:1023F000410000447D413048484A32384040227A0A
:10240000007A0A0A727D0D19317D2629292F282686
:102410002929292630484D4020380808080808088E
:102420000808382F10C8ACBA2F102834FA00007BE7
:10243000000008142A142222142A1408AA005500A5
:10244000AAAA55AA55AA000000FF00101010FF000C
:10245000141414FF001010FF00FF1010F010F014FF
:102460001414FC001414F700FF0000FF00FF141404
:10247000F404FC141417101F10101F101F14141450
:102480001F00101010F0000000001F101010101F8F
:1024900010101010F010000000FF1010101010109D
:1024A000101010FF10000000FF140000FF00FF00DC
:1024B000001F10170000FC04F41414171017141454
:1024C000F404F40000FF00F714141414141414F7A7
:1024D00000F7141414171410101F101F141414F400
:1024E000141010F010F000001F101F0000001F1447
:1024F000000000FC140000F010F01010FF10FF149A
:102500001414FF141010101F00000000F010FFFF43
:10251000FFFFFFF0F0F0F0F0FFFFFF000000000011
:10252000FFFF0F0F0F0F0F38444438447C2A2A3E18
:10253000147E02020606027E027E02635549416352
:102540003844443C04407E201E2006027E0202994C
:10255000A5E7A5991C2A492A1C4C7201724C304AE5
:102560004D4D303048784830BC625A463D3E49496E
:1025700049007E0101017E2A2A2A2A2A44445F4416
:102580004440514A444040444A51400000FF010346
:10259000E080FF000008086B6B0836123624360610
:1025A0000F090F060000181800000010100030403E
:1025B000FF0101001F01011E00191D1712003C3C04
:1025C0003C3C00000000000048756D693A000000C6
:1025D0002500000054656D703A0000006F00000097
:1025E000430000004552524F5221212100000000BB
:1025F000000000000000000009040008BD01000800
:10260000ED010008E90100080A00000000000000D8
:1026100000000000000000000000000000000000BA
:1026200000000000000000000000000000000000AA
:10263000000000000000000000000000000000009A
:10264000000000000000000000000000000000008A
:10265000000000000000000000000000000000007A
:102660000000000000000000000000004300000027
:0826700014040020000000002A
:1026780008B10181B0B000840000000008B10181F8
:08268800B0B000840000000066
:10269000B8DAFF7F0100000024DBFF7FAB08B180C8
:1026A00048DBFF7F01000000A0DFFF7FB0AF0680A6
:1026B0004CE3FF7F01000000BCE6FF7FA908B1806A
:1026C0000CE7FF7FB0B0AE806CE7FF7F0100000039
:1026D00064E8FF7FB0B0A88088E8FF7F0B840980A2
:1026E000D0E8FF7F01000000C8EAFF7FB0A90280A8
:1026F00064EBFF7FB0B0A880B4EBFF7F0100000067
:10270000C0EBFF7FB0B0AA80F8EBFF7FAE71B28064
:10271000C4ECFF7F01000000C0ECFF7FAB3F3880BE
:1027200018EDFF7F0100000024EDFF7FB0B0AA800C
:1027300060EDFF7F0100000018EEFF7FAB0EB2805E
:1027400080EEFF7FB0AF0A8054F1FF7F01000000F0
:1027500058F1FF7FAB3F0480A0F3FF7F0100000032
:102760007CF5FF7F0084048090F5FF7F010000006E
:102770008CF5FF7FB0AD048028F8FF7FB0A8038000
:1027800048F8FF7FF4FEFF7F4CF8FF7FF8FEFF7FE5
:0827900058F8FF7F0100000072
:102798000204060800000000010203040102030409
:1027A8000607080900000000000000000000000003
:1027B8000000000000000000000000000000000011
:1027C800000008F8F8F0F0E08000000000000000C9
:1027D80000000000000000000000000000000000F1
:1027E8000000000000000000C0F0F0F87878F8F071
:1027F800E0C000C0F0F0F07878F0F0E0C000F0F051
:10280800F0F0707070000000000000000000000090
:1028180000000000000000000000000000000000B0
:1028280000000000000000000000000000000000A0
:1028380000000080C0E0E0F0F0783CBCDEEFF7F08C
:10284800F87C7EBFDFFFEFFFF7F8FCF0C000000068
:102858000000000000000000000000000000000070
:102868000000000000000000FFFFFFFF3838FBFBFE
:10287800FBFB00FFFFFFFF0000FFFFFFFF00FFFF64
:10288800FFFF1E1C1C0000000000000000000000EC
:102898000000000000000000000000000000000030
:1028A8000000000000000000000000000000000020
:1028B800C0C0828F9F3F3F7F7066DF3F7FFF03016D
:1028C800001E3F7FFFFF3F3F1F1F0F8701000000D3
:1028D80000000000000000000000000000000000F0
:1028E800000000000000000001070F0F0F0F07078E
:1028F8000707000107070F0F0F0F0707010007075A
:1029080007070000000000000000000000000000B1
:1029180000000000000000000000000000000000AF
:10292800000000000000000000000000000000009F
:102938000000010103070F1F3E7E7EFEFE0E647835
:10294800181C1C1C0C0C0C0E0E0E070300000000BB
:102958000000000000FE12103882000001FF000095
:102968000000F06808B02000F090081890000808EF
:10297800FE0888000808F810081000F0100890F009
:102988000008F80808F00000080AFB000000F090B2
:102998000818800000B06848D80000000000000057
:1029A800000000000000000000000000000000001F
:1029B800000000000000000000000000000000000F
:1029C80000000000000000000000000000000000FF
:1029D80000000000000101010101000001010101E6
:1029E80000000001010100000001010100000000D9
:1029F80001010100010101010000000001010100C5
:102A080000010100010101000101010100000001B4
:102A180001010000000101010000000000000000A9
:102A28000000000000F0080808F00000E02020C0C6
:102A38000000C0A0A0C00000E02020E0000000309E
:102A48004848980000E02020E00000E00000E00096
:102A580000E0202000C020202000C0A0A0C000006E
:102A68000000000000F0080808F00000E02020C086
:102A78000000C0A0A0C00000E02020E0000000008E
:102A8800F8186080806018F800E80000E02020E076
:102A98000000C02020F80000C0A0A0C00000C02096
:102AA80020F8000000010202020100000F020201EA
:102AB80000000102020200000300000300000003FE
:102AC80002020100000302020300000302020300E5
:102AD80000030000000102020200010202020008D5
:102AE8000600000000010202020100000F020201BC
:102AF80000000102020200000300000300000000C1
:102B080003000003030000030003000003000003A8
:102B1800000001020203000001020202000001029B
:102B28000203000000000000000000000000000098
:102B3800000000000000000000000000000000008D
:102B4800000000000000000000000000000000007D
:102B5800000000000000000000000000000000006D
:102B6800000000000000000000000000000000005D
:102B7800000000000000000000000000000000004D
:102B8800000000000000000000000000000000003D
:102B9800000000000000000000000000000000002D
:102BA80000000000000000000C2600082C26000889
:102BB8004C26000800000000000000000000000093
:102BC800000000006C260008000000000000000063
:102BD80000000000000000000000000000000000ED
:102BE80000000000000000000000000000000000DD
:102BF80000000000000000000000000000000000CD
:102C0800000000001404002011010008B50C0008A1
:042C1800ED000008C3
:0400000508000000EF
:00000001FF
